:400000000080002011000000F5110000F511000008B5044B1A6803F53F5302331A6001F0EBF800BFFA46004010B5054C237833B9044B13B10448AFF300800123237010BD87
:400040002081FF1F00000000A0160000084B10B51BB108480849AFF300800848036803B910BD074B002BFBD0BDE81040184700BF00000000A01600002481FF1F0881FF1FA5
:400080000000000070B582B062B6AC4C204600F045FB392000F0F6FA0520012100F020FBA7480021012200F015FA0520022100F017FBA44801210A4600F00CFA082003219C
:4000C00000F00EFBA0480021012200F003FA1420042100F005FB9D4801210A4600F0FAF94FF4FA6001F08CFA00F0DEFA0220012100F0F6FA9648012100F054FB02200321E6
:4001000000F0EEFA934801210A4600F0E3F90220042100F0E5FA90480121002200F0DAF94FF4FA6001F06CFA04F5FC7000F01AF900F0BAFA0A20012100F0D2FA87480121E0
:400140000A4600F0C7F90A20022100F0C9FA844801210A4600F0BEF94FF4FA6001F050FA204600F0FFF800F09FFA0420012100F0B7FA56200021012200F00EF9042003210C
:4001800000F0AEFA49200021012200F005F9002619E00025009501200F214F22F3B200F0C7FD0DE00024009403200F214F22EBB200F0BEFD234600E00133492BFCDD013567
:4001C0002F2DEFDD01360F2EE3DD00F06DFA0A20012100F085FA56200021012200F0DCF81E20012100F07CFA49200021012200F0D3F800261AE0002500950A200221042298
:40020000F3B200F0E7FB0EE0002400941E2002210422EBB200F0DEFB234600E00133B3F5397FFBDB0135132DEEDD0136092EE2DD00F03AFA414C04F57C7300930B2001211A
:400240003E22042300F098FB4FF4FA6001F0D8F904F59D6000F086F800F026FA0025009506200F212A222D2300F016FE4FF4FA7001F0C6F90224009406200F212A222D23E8
:4002800000F00AFE009507200E212A222D2300F003FE4FF4FA7001F0B3F9009407200E212A222D2300F0F8FD009509200E212A222D2300F0F1FD4FF4FA7001F0A1F90094E6
:4002C00009200E212A222D2300F0E6FD00950A200C212A222D2300F0DFFD4FF4FA7001F08FF900940A200C212A222D2300F0D4FD00951A2006212A222D2300F0CDFD4FF4E6
:40030000FA7001F07DF900941A2006212A222D2300F0C2FD00952B2004212A222D2300F0BBFD4FF4FA7001F06BF900942B2004212A222D2300F0B0FD90E700BFA416000034
:40034000841D00008C1D00009C1D0000A81D0000B01D0000BC1D0000C81D0000D41D0000DC1D0000014B1860704700BF4081FF1F10B50446012001F017F901F0B1F810F05C
:40038000100FFAD0204601F0B7F801F0A9F810F0100FFAD010BD00BF70B50546002A47D1A1B117E0A5F1200303EB43032344464AD05C464E464B1A683368D35C1843FFF77A
:4003C000D7FF013433680133336000E00024022CE8DD25E0012915D000241FE0A5F1200303EB43032344384AD05C384E384B1A683368D35C5840FFF7BBFF013433680133BF
:40040000336000E00024022CE8DD09E0304B1A682E4B1B68D05CFFF7ABFF0134022CF5DD2B4B1A68294B1B68D05CFFF7A1FF70BDB1B119E0A5F1200303EB8303224A134426
:40044000234493F84001214E214B1A683368D35C1843FFF78DFF013433680133336000E00024042CE6DD27E0012917D0002421E0A5F1200303EB8303134A1344234493F8A7
:400480004001124E124B1A683368D35C5840FFF76FFF013433680133336000E00024042CE6DD09E00A4B1A68084B1B68D05CFFF75FFF0134042CF5DD054B1A68034B1B6878
:4004C000D05CFFF755FF70BDE81D00004881FF1F4081FF1F2DE9F84306460F469046B0E00136B8F1000F54D1C7B11BE0A5F1200303EB43032344564AD05CDFF85C91554B2B
:400500001A68D9F80030D35C1843FFF731FF0134D9F800300133C9F8003000E00024022CE4DD2CE0012F19D0002526E0A5F1200303EB43032344464AD05CDFF81C91454BC6
:400540001A68D9F80030D35C5840FFF711FF0134D9F800300133C9F8003000E00024022CE4DD0CE03C4C3B4B1A682368D05CFFF7FFFE0135236801332360022DF2DD354BC1
:400580001968354A1368581C1060C85CFFF7F0FE57E0D7B11DE0A5F1200303EB83032C4A1344234493F84001DFF8AC90294B1A68D9F80030D35C1843FFF7DAFE0134D9F883
:4005C00000300133C9F8003000E00024042CE2DD2EE0012F1BD0002528E0A5F1200303EB83031B4A1344234493F84001DFF86890184B1A68D9F80030D35C5840FFF7B8FE19
:400600000134D9F800300133C9F8003000E00024042CE2DD0CE0104C0E4B1A682368D05CFFF7A6FE0135236801332360042DF2DD084B1968084A1368581C1060C85CFFF7E1
:4006400097FE3578002D7FF44BAFBDE8F88300BFE81D00004081FF1F4881FF1F10B50446002000F0A1FF00F03BFF10F0100FFAD0204600F041FF00F033FF10F0100FFAD081
:4006800010BD00BF10B5044610F0800F00D07F242120FFF7E3FF44F08000FFF7DFFF2020FFF7DCFF10BD00BF10B54020FFF7D6FF8020FFF7D3FF002405E0084B1B68185DB3
:4006C000FFF756FE0134B4F5FC7FF6DB4020FFF7C5FF8020FFF7C2FF10BD00BF4081FF1F38B505460C460A4B18600A4B196001F0070040F04000FFF7B1FF45F08000FFF7CC
:40070000ADFF542303FB0454034B1C6038BD00BF4C81FF1F4481FF1F4881FF1F10B50446012000F035FF00F025FF2120FFF796FFC020FFF793FF0620FFF790FF1320FFF79D
:400740008DFF2020FFF78AFF0C20FFF787FF4020FFF784FF8020FFF781FF74B900200146FFF7BEFF04E00020FFF702FE0134A4B223B2B3F5FC7FF6DB10BD084B1C60002442
:4007800005E0064B1B68185DFFF7F2FD0134B4F5FC7FF6DB0022024B1A6010BD4081FF1F4881FF1F2DE9F84306460F466D4D286800F0070040F04000FFF750FF6A4C20685A
:4007C00060F07F00C0B2FFF749FF2A682368542101FB0233654A1360B1464FE009F10109B7B119E0A8F1200304EBC302604B03EB420393F840035D4D5E4B1A682B68D35C57
:400800001843FFF7B5FD01342B6801332B6000E00024072CE6DD2AE0012F17D0002524E0A8F1200304EBC302514B03EB420393F840034E4D4F4B1A682B68D35C5840FFF7D6
:4008400097FD01342B6801332B6000E00024072CE6DD0CE0454C474B1A682368D05CFFF787FD0135236801332360072DF2DD414B1A683E4B1B68D05CFFF77AFD99F8008062
:40088000B8F1000FAAD1374C2368013303F0070040F04000FFF7E2FE334D286860F07F00C0B2FFF7DBFE2268542302FB03332A6813442E4A13604EE00136B7B119E0A8F1FC
:4008C000200304EBC3022A4B03EB420393F84103264D284B1A682B68D35C1843FFF748FD01342B6801332B6000E00024072CE6DD2AE0012F17D0002524E0A8F1200304EB74
:40090000C3021B4B03EB420393F84103174D194B1A682B68D35C5840FFF72AFD01342B6801332B6000E00024072CE6DD0CE00F4C104B1A682368D05CFFF71AFD013523689F
:4009400001332360072DF2DD0A4B1A68074B1B68D05CFFF70DFD96F80080B8F1000FABD1BDE8F8834481FF1F4C81FF1F4881FF1FE81D00004081FF1F2DE9F04781468A4606
:4009800015469846089F002615E00AEB060040F04000C0B2FFF762FE49F08000FFF75EFE002405E005FB0643F85CFFF7E1FC0134A542F7DC01364346B045E6DC5344542212
:4009C00002FB03994D44024B1D60BDE8F08700BF4881FF1F2DE9F84F8346884617461D469DF8286042F04000FFF738FE4BF080094846FFF733FEDA46542303FB07B3944A2C
:400A000013601EB9FF20FFF7B3FC14E0012E0AD1904A1268581C8E490860D05CC043C0B2FFF7A6FC07E08B4A1268581C88490860D05CFFF79DFC002438E0072D11D8DFE8AC
:400A400005F004041206080A0C0E80230CE0E0230AE0F02308E0F82306E0FC2304E0FE2302E0FF2300E0C02346B97A4A1168784A1268885C1843FFF77BFC11E0012E08D1B5
:400A8000744A1168724A1268885C5840FFF770FC06E0704B1A686E4B1B68D05CFFF768FC0134E4B26A4A136801331360052CC4D91EB9FF20FFF75CFC16E0012E0BD1654BA2
:400AC0001968634A1368581C1060C85CC043C0B2FFF74EFC08E05F4B19685D4A1368581C1060C85CFFF744FC013FFFB288E0082D02D9083DEDB200E0002547F04000FFF75E
:400B0000ADFD4846FFF7AAFD542303FB07A3504A13601EB9FF20FFF72BFC14E0012E0AD14C4A1268581C4A490860D05CC043C0B2FFF71EFC07E0474A1268581C4449086018
:400B4000D05CFFF715FC00243AE0072D13D8DFE805F0041406080A0C0E1000230EE0C0230CE0E0230AE0F02308E0F82306E0FC2304E0FE2302E0FF2300E0802346B9354ADD
:400B80001168334A1268885C1843FFF7F1FB11E0012E08D12F4A11682D4A1268885C5840FFF7E6FB06E02B4B1A68294B1B68D05CFFF7DEFB0134E4B2254A13680133136049
:400BC000052CC2D91EB9FF20FFF7D2FB16E0012E0BD1204B19681E4A1368581C1060C85CC043C0B2FFF7C4FB08E01A4B1968184A1368581C1060C85CFFF7BAFB013FFFB21F
:400C000047453FF674AF082D03D9A5F10804E4B200E0002448F04000FFF720FD4846FFF71DFD542303FB08B3094A13601EB9FF20FFF79EFB18E0012E0ED1064A1268581C9B
:400C400003490860D05CC043C0B2FFF791FB0BE04881FF1F4081FF1F334A1268581C33490860D05CFFF784FB00253AE0072C13D8DFE804F0041406080A0C0E1001230EE078
:400C8000C1230CE0E1230AE0F12308E0F92306E0FD2304E0FF2302E0FF2300E0812346B9214A1168214A1268885C1843FFF760FB11E0012E08D11C4A11681C4A1268885CD6
:400CC0005840FFF755FB06E0174B1A68174B1B68D05CFFF74DFB0135EDB2144A136801331360052DC2D926B9FF20FFF741FBBDE8F88F012E0CD10C4B19680C4A1368581C56
:400D00001060C85CC043C0B2FFF732FBBDE8F88F054B1968054A1368581C1060C85CFFF727FBBDE8F88F00BF4081FF1F4881FF1F2DE9F84380460C46174699469DF8205045
:400D400040F04000FFF78AFC44F08000FFF786FC2646542303FB084455B94D4B1B68611C4C4A1160185D40F07E00FFF701FB14E0012D0AD1464B1B68611C464A1160185D68
:400D800080F07E00FFF7F4FA07E0414B1B68611C404A1160185DFFF7EBFA4FF0010823E04DB93B4B1A683B4B1B68D05C40F07E00FFF7DEFA12E0012D09D1354B1A68354B1D
:400DC0001B68D05C80F07E00FFF7D2FA06E0304B1A68304B1B68D05CFFF7CAFA08F101082C4A1368013313604C46C145D8DC013422E04DB9264B1A68264B1B68D05C40F067
:400E00004200FFF7B5FA12E0012D09D1204B1A68204B1B68D05C80F04200FFF7A9FA06E01B4B1A681B4B1B68D05CFFF7A1FA0134184A136801331360BB1BA342D9DC65B9C4
:400E4000134B1968134A1368581C1060C85C40F07E00FFF78DFABDE8F883012D0CD10C4B19680C4A1368581C1060C85C80F07E00FFF77EFABDE8F883054B1968054A136895
:400E8000581C1060C85CFFF773FABDE8F88300BF4081FF1F4881FF1F2DE9F04F87B005460C46049205939DF84090C0EB020B5B1A04D55B424FF0FF32039201E00122039225
:400EC000BBF1000F05DACBF1000B4FF0FF32029201E0012202924FEA4B0B5B000193E70804F00703062B17D8DFE803F00419070A0D1013004FF0010A13E04FF0040A10E0D8
:400F00004FF0080A0DE04FF0100A0AE04FF0200A07E04FF0400A04E04FF0800A01E04FF0020A019B9B4540F39780A3EB6B082E468DE0B8F1000F04DB039B1C44E4B2CBEBF5
:400F40000808029B1D44EDB2019B9844AE4202D1B7EBD40F56D047F04000FFF77FFB66F07F00C0B2FFF77AFB542303FB0766B9F1000F0AD19D4B1B68711C9D4A1160985D8A
:400F80004AEA0000FFF7F4F915E0B9F1010F0AD1964B1B68711C964A1160985D8AEA0000FFF7E6F907E0914B1B68711C904A1160985DFFF7DDF9E70804F00703062B1DD81E
:400FC000DFE803F00442080C101418002E464FF0010A3CE02E464FF0040A38E02E464FF0080A34E02E464FF0100A30E02E464FF0200A2CE02E464FF0400A28E02E464FF097
:40100000800A24E004F00703062B1AD8DFE803F004070A0D101316004AF0010A17E04AF0020A14E04AF0040A11E04AF0080A0EE04AF0100A0BE04AF0200A08E04AF0400AF4
:4010400005E04AF0800A02E02E464FF0020A049B9D427FF46EAF96E0019BABEB63082E468DE0B8F1000F05DB029B1D44EDB2019BC3EB0808039B1C44E4B2D844AE4202D122
:40108000B7EBD40F56D047F04000FFF7E7FA66F07F00C0B2FFF7E2FA542303FB0766B9F1000F0AD1514B1B68711C514A1160985D4AEA0000FFF75CF915E0B9F1010F0AD1F2
:4010C0004A4B1B68711C4A4A1160985D8AEA0000FFF74EF907E0454B1B68711C444A1160985DFFF745F9E70804F00703062B1DD8DFE803F00442080C101418002E464FF0DB
:40110000010A3CE02E464FF0040A38E02E464FF0080A34E02E464FF0100A30E02E464FF0200A2CE02E464FF0400A28E02E464FF0800A24E004F00703062B1AD8DFE803F0EF
:4011400004070A0D101316004AF0010A17E04AF0020A14E04AF0040A11E04AF0080A0EE04AF0100A0BE04AF0200A08E04AF0400A05E04AF0800A02E02E464FF0020A059B32
:401180009C427FF46EAF47F04000FFF767FA66F07F00C0B2FFF762FA542303FB0766B9F1000F0AD1114B1B68711C114A1160985D4AEA0000FFF7DCF815E0B9F1010F0AD12F
:4011C0000A4B1B68711C0A4A1160985D8AEA0000FFF7CEF807E0054B1B68711C044A1160985DFFF7C5F807B0BDE8F08F4081FF1F4881FF1FFEE700BF08B5104E104D16E03F
:4012000029686B68AC68002204E051F8040B43F8040B0432A242F8D1E868002203E0002143F8041B04328242F9D11035013E002EE6D100F0FBF9FEF725FFFEE701000000CB
:401240002827000008B5124A124B1A60124A136843F40073136000230AE0032B03D80F4A52F8231000E00E490E4A42F8231001332F2BF2D90C4B1A780C4B1A70094A0C4B86
:401280001A6000F0ADF800220A4B1A6008BD00BF0004FA050CED00E014ED00E000000000F51100000080FF1FBC7600400481FF1F08ED00E00081FF1FFEE700BFF0B4002256
:4012C000174611E050F82760F3B226F0FF0608E001EB420511F812406D78A5550132013BDBB2002BF4D101370E2FEBD9F0BC7047064B1B78DBB203F00701054A11701B09D4
:40130000013213704422034B1A707047CF0100496E5800407658004008B50A46002100F0B6F908BD38B50223234A138018210232117002F27E22137008224FF040231A70D6
:40134000032103F5007319701C4B1B78DBB21C490B701C4B1A8041F25122023B1A80002419250CE0184B1B7803F0010343EA440404F003044FF4F07000F032F9013D0DB10B
:40138000032CEFD115B90320FFF796FF0F4B4FF480721A8007221A7000220D490A704820023108701A700222033B1A70094A137843F00103137038BD80400040080100498C
:4013C000A146004022420040254200400440004006400040A243004008B500F04DF908BD38B572B6264A137843F00403137000240CE0244963001A1952000A4423445B0052
:40140000C8589188FFF788FF0134E4B2062CF0D94FF090401C49FFF751FF1C4A137843F0020313701032137843F002031370184C237843F040032370A2F58632513A1378D5
:4014400043F010031370134813490A22FFF7C4FF124A137843F008031370114D61232B70FFF760FF81232B7001220E4B1A70FFF73FFF0D4821460E22FFF7AEFF38BD00BFD1
:40148000E8460040D82600003C00004803500140A0430040F051004094030048224300400048004004000840B043004008B500F09FF80A4A137843F02003137002F2031274
:4014C000137843F010031370033A137843F01003137000F091F800F073F808BD94640040014B1878704700BF67650040014B1878704700BF64650040034B1B7813F0040F86
:40150000FAD0024B18707047676500404464004008B501E00A4B1B780A4B1B7813F0200FF8D100F065F8084B1A7842F001021A701A7802F0FE021A7000F05EF808BD00BF2F
:4015400054640040646500409464004008B50F22064B1A70FFF7DCFFFFF7C2FFFFF7C6FF0023034A1370033A137008BD846400408765004008B5054B1B7823B9FFF7E6FF03
:401580000122024B1A70FFF791FF08BD3C81FF1F044A137803F0EF03000100F01000184310707047F0510040044A137803F0FB03800000F00400184310707047F0510040E8
:4015C000054A137843F0010313701032137843F001031370704700BFA2430040000000000230800803D000BF01380046FCD17047EFF3108072B6704780F31088704700BF14
:4016000010B5044605E0084B1868FFF7E9FFA4F50044B4F5004FF6D8034B586800FB04F0FFF7DEFF10BD00BF0C81FF1F0E4B70B51E460E4C0025E41AA410A54204D056F83F
:40164000253098470135F8E701F05CF8084B094C1E46E41AA4100025A54204D056F8253098470135F8E770BD1027000010270000102700001827000010B5431E0A4491424F
:4016800004D011F8014B03F8014FF8E710BD03460244934202D003F8011BFAE77047000000000000FF0101010101010101010101010101010101010101010101010101010B
:4016C00001010101010101010101010101010101010101010101010101010101010101010101010101010101010101010101010101010101010101FFFF00000000000000B5
:4017000000000000000000000000000000000000000000000000000000000000000000000000000000000000000000000000000000000000000000000000000000000000A9
:401740000000000000000000000000FFFF0000000000000000000000000000000000000000000000000000000000000000000000000000000000000000000000000000006B
:4017800000000000000000000000000000000000000000000000000000000000000000FFFF000000000000000000000000000000000000000000000000000000000000002B
:4017C000000000000000000000000000000000000000000000000000000000000000000000000000000000000000000000000000000000FFFF0000000000000000000000EB
:4018000000000000000000000000000000000000000000000000000000000000000000000000000000000000000000000000000000000000000000000000000000000000A8
:4018400000000000000000FFFF80808080808080808080808080808080808080808080808080808080808080808080808080808080808080808080808080808080808080EA
:40188000808080808080808080808080808080808080808080808080808080FFFFFFFFFFFFFFFFFFFFFFFFFFFFFFFFFFFFFFFFFFFFFFFFFFFFFFFFFFFFFFFFFFFFFFFFFFCD
:4018C000FFFFFFFFFFFFFFFFFFFFFFFFFFFFFFFFFFFFFFFFFFFFFFFFFFFFFFFFFFFFFFFFFFFFFFFF7F7F3F3F1F0F0F07070303FFFFFFFFFFFFFFFFFFFFFFFFFFFFFFFFFF50
:40190000FFFFFFFFFFFFFFFFFFFFFFFFFFFFFFFFFFFFFFFFFFFFFFFFFFFFFFFFFFFFFFFFFFFFFFFFFFFFFFFFFFFF7F7F3F1F1F0F0F07070301010000000000000000000025
:40194000000000FFFFFFFFFFFFFFFFFFFFFFFFFFFFFFFFFFFFFFFFFFFFFFFFFFFFFFFFFFFFFFFFFFFFFFFFFFFFFFFFFFFFFFFFFF7F7F3F1F1F0F0F070703010100000000E8
:401980000000000000000000000000000000000000000000000000FFFFFFFFFFFFFFFFFFFFFFFFFFFFFFFFFFFFFFFFFFFFFFFFFFFFFFFFFFFFFF7F3F3F1F1F0F0F070303E0
:4019C00001010000000000000000000000000000000000000000000000000000000000000000000000000000000000FFFFFFFFFFFFFFFFFFFFFFFFFFFFFFFFFF7F3F3F1FDA
:401A00001F0F0F070303010100000000000000000000000000000000000000000000000000000000000000000000000000000000000000000000000000000000000000FF5B
:401A4000FFFFFFBFBF9F9F8F878783838181808080808080808080808080808080808080808080808080808080808080808080808080808080808080808080808080808008
:401A800080808080808080808080808080808080808080FF0000000000000000404040505050505054D4D4D6F6F6F6FEFEFEFEFEFEFE7E7E7E7E7CFCFCF8F8F8F0F0E0C0DD
:401AC0008000000000000000000000000000000000000000000050545555555555555555F5FDFFFFF7F7F3F3E1C1C1C1C08181C0C0C0C0C0C0C0800080000001010101012B
:401B00000101818141C1C2C6C6FC76FC8C84840400000000155555555555555555575F7FFFFFFFFFFFFFFFFFFFFFFFFFFFFFFFFFFFFFFFFFFF7D0780C0F0FEFEF6FF7F1F2B
:401B40000101030100000101000000000000000000000000010105050515151515155557575F5F5F5F7F7F7F7F7F7F7F7F7F1F034160303E3F1F1F0F0F0703010000000016
:401B8000000000000000000000000000FFDDABFFABDDABFFABDDAB7F6B3D2B1F1B0D0B0F0B0507070705030303030301010101010101010101C1C1010101010101010101B9
:401BC0000101030303030307070507070B0D0B0F1B1D2B3F6B5DABFFABDDABFFABDDABFFFFDD2A1F0A05020301000000008080405070E09010080808080404040404020217
:401C00000202020202021151F103F311F101020202020202020204040404040808080850703828404080800000000000010306070A1D6AFFFF000000004020100804020248
:401C4000010000000000000000000000000000000000000000000000000001010100010101000000000000000000000000000000000000000000000000808081028284884C
:401C800010200000000000FFFF000000000000021F001F111F00000000000000000000000000000000000000008080808080C040C040C040C08080808080000000000000C6
:401CC000000000000000000000000000000F0A0E000F080F00000000000000FFFF0000000000000000000000000000000000000000000080C020B008AC04AA01AB00AA8051
:401D0000AAC0EAC0EAC0EAC0EAC0AA80AA00AB01AA04AC08B020C0800000000000000000000000000000000000000000000000FFFF80808080808080808080808080808021
:401D40008080808080E0BE81AA80AA80EAF8FEFEFFFFFFFFFFFFFFFFFFFFFFFFFFFFFFFFFFFFFFFEFEF8EA80AA80AA81BEE080808080808080808080808080808080808054
:401D8000808080FF437970726573730050536F43354C502026204C4344000000696E746572666163696E67006578616D706C65004269672046726F6E740000004D6964642D
:401DC0006C6520466F6E7400536D616C6C20466F6E7400004F564552000000004241434B47524F554E4400000000000017000300031F0A1F0A1F050904120F171C00030098
:401E0000000E11110E00050205040E041008000404040010000804021F111F121F101D151711151F07041F17151D1F151D01011F1F151F17151F000A00100A00040A110A12
:401E40000A0A110A040115030E15161E051E1F150A0E11111F110E1F15151F05050E151D1F041F111F1108100F1F041B1F10101F061F1F0E1F0E110E1F05020E111E1F0DCB
:401E800016121509011F010F100F0718071F0C1F1B041B031C031915131F110002040800111F0201021010100102001A161C1F120C0C12120C121F0C1A16041E0506150F57
:401EC0001F021C001D0010100D1F0C12111F101E0E1E1E021C0C120C1E0A04040A1E1C0202141E0A021F120E101E0E100E1E1C1E120C1202141E1A1E16041B11001F001175
:401F00001B040406021F1F1F0000000000000000000000000000000000000000000000000000000000000000000000000000005F00000007000700147F147F14242A7F2A7B
:401F400012231308646236495522500005030000001C2241000041221C0014083E081408083E080800503000000808080808006060000020100804023E5149453E00427F69
:401F8000400042615149462141454B311814127F1027454545393C4A49493001710905033649494936064949291E0036360000005636000008142241001414141414004132
:401FC0002214080201510906324979413E7E1111117E7F494949363E414141227F4141221C7F494949417F090909013E4149497A7F0808087F00417F41002040413F017F74
:40200000081422417F404040407F020C027F7F0408107F3E4141413E7F090909063E4151215E7F09192946464949493101017F01013F4040403F1F2040201F3F4038403F35
:40204000631408146307087008076151494543007F41410002040810200041417F0004020102044040404040000102040020545454787F484444383844444420384444487E
:402080007F3854545418087E0901020C5252523E7F0804047800447D40002040443D007F1028440000417F40007C041804787C0804047838444444387C141414080814145B
:4020C000187C7C080404084854545420043F4440203C4040207C1C2040201C3C4030403C44281028440C5050503C4464544C44000836410000007F000000413608001008F4
:402100000810080000000000007F3E1C08081C3E7F00087C7E7C08103E7E3E103E3E3E3E3E007F3E1C08000000000000000000000000000000000000000000003E00FF0DBC
:40214000FF0D3E0000000000000004000700030000000400070003001001FE0FFE0F10011001FE0FFE0F10011C033E072204FF0FFF0F4204CE078C03000000040607C60357
:40218000F0003C060E0602001E063F0FE109C109410B210C3F1E1E160000000004000700030000000000000000000000F801FE07070E010800000000000000000108070E5F
:4021C000FE07F801000000002000A800F80070007000F800A8002000200020002000FC01FC01200020002000000000000020003C001C0000000000002000200020002000CF
:402200002000200020002000000000000000000C000C0000000000000000000C000FC003F0003C000F000300FE07FF0F0108010801080108FF0FFE07000004080608FF0F78
:40224000FF0F000800080000020E030F8109C108610831081F080E0C0204030C0108210821082108FF0FDE07E000F00098008C008608FF0FFF0F00083F043F0C21082108D6
:4022800021082108E10FC107FC07FE0F2308210821082108E00FC007030003000100810FE10F79001F000700DE07FF0F2108210821082108FF0FDE071E003F082108210841
:4022C0002108210CFF07FE0300000000000018061806000000000000000000000010181E180E0000000000004000E000B00118030C06060C020800000000A000A000A000DF
:40230000A000A000A000000000000208060C0C061803B001E0004000020003000100C10DE10D31001F000E00020003000100C10DE10D31001F000E00F80FFC0F8600830048
:4023400083008600FC0FF80FFF0FFF0F2108210821082108FF0FDE07FC03FE07030C010801080108030C06060108FF0FFF0F01080108030CFE07FC030108FF0FFF0F2108AE
:4023800021087108030C030C0108FF0FFF0F21082100710003000300FC03FE07030C010841084108C307C60FFF0FFF0F2000200020002000FF0FFF0F000001080108FF0F52
:4023C000FF0F0108010800000006000E000800080108FF0FFF0701000108FF0FFF0F7000D8008C01070F030E0108FF0FFF0F010800080008000C000CFF0FFF0F0C00780064
:4024000078000C00FF0FFF0FFF0FFF0F1C0038007000E000FF0FFF0FFE07FF0F0108010801080108FF0FFE070108FF0FFF0F2108210021003F001E00FE07FF0F0108010EBE
:40244000011C0138FF2FFE070108FF0FFF0F210821006100FF0F9E0F0E061F0E3108210821086108C70F8607030003000108FF0FFF0F010803000300FF07FF0F0008000852
:4024800000080008FF0FFF07FF01FF030006000C000C0006FF03FF01FF01FF0F000EE003E003000EFF0FFF01070E0F0F9801F000F00098010F0F070E0F001F003008E00F05
:4024C000E00F30081F000F00030F830FC1086108310819080F0C070C00000000FF0FFF0F01080108000000005555AAAA5555AAAA5555AAAA5555AAAA0000000001080108F1
:40250000FF0FFF0F0000000008000C0006000300030006000C000800004000400040004000400040004000400000000008000F0007000000000000000007900F9008900851
:402540009008F007E00F00080108FF0FFF07100810083008E00FC007E007F00F1008100810081008300C2004C007E00F300810081108FF07FF0F0008E007F00F90089008A3
:4025800090089008F00CE00400001008FE0FFF0F1108110003000200E027F06F104810481048E07FF03F10000108FF0FFF0F200010001000F00FE00F000010081008F60F15
:4025C000F60F0008000800000030006010401040F67FF63F000000000108FF0FFF0FC000C0016003300E100C000001080108FF0FFF0F000800080000F00FF00F3000E00736
:40260000E0073000F00FE00F1000F00FE00F100010001000F00FE00FE007F00F1008100810081008F00FE0071040F07FE07F104810081008F00FE007E007F00F10081008AB
:402640001048E07FF07F10401000F00FE00F100010001000300020006004F00C9008900890091009300F200610001000FE07FF0F1008100C00040000F007F00F000800084E
:402680000008F007F00F0008F001F0030006000C000C0006F003F001F007F00F000C80078007000CF00FF0071008300C6006C003C0036006300C1008F047F04F0048004816
:4026C00000480068F03FF01F300C300E100B9009D0087008300C100C005100407000C0510040100000000140001000140140000800400140000A004C01400002005001405B
:4027000020000000F8B500BFF8BC08BC9E4670474D00000045120000F8B500BFF8BC08BC9E46704729000000382700000881FF1F1800000030000000000000000000E02E52
:40274000C05D00001800000000366E01000000000000000000000000000000000000000000000000000000000000000000000000000000000000000000000000000000007F
:402780000000000000000000000000000000000000000000000000000000000000000000000000000000000000000000000000000000000000000000000000000000000019
:4027C00000000000000000000000000000000000000000000000000000000000000000000000000000000000000000000000000000000000000000000000000000000000D9
:402800000000000000000000000000000000000000000000000000000000000000000000000000000000000000000000000000000000000000000000000000000000000098
:402840000000000000000000000000000000000000000000000000000000000000000000000000000000000000000000000000000000000000000000000000000000000058
:020000040003F7
:0200000480007A
:40000000035200400164004053040140310501400B07014001090140441401403B1501404616014041170140024601400247014008480140024901400450014078027903BE
:400040007C20840F08030C010E0218011A02300236013E41406541034220440145BE46F047DC483B49FF4AFF4BFF4C224EF04F0850045602572C58045A045B045F0162C0F5
:40008000644065016610671168C069016B116C406D016E406F0181018260841F8501862089078AFF8B188C7F8D108E809101929F954098C099089A049B219CC09D049E01D6
:4000C000A090A101A240A480A501A8C0A940AA08ACC0AD22AE02AF08B2FFB53FB740B9A0BE04BF10D804D904DF010010018004120590062009100CA00E801514174219402E
:400100001A801F082402268027042C202D802E012F083510368037063C803D2C3E2240054220484049984A40521453026040682869506A136B4A70807202C0F3C2D2C4F01C
:40014000CAF0CCF0CEF0D00ED20CD80191509292944499489A149B089D90A0E8A302A514B401EE100205030104030502070C09010A020C040D080F06110114041807190102
:400180001C041D012004210A2304240429062A042B082F01310E330136073AC03B023F045440580459045B045F01800684098504860688048B0C8C068D0C910C9407950822
:4001C0009608980299019A049B029C019E0EA006A10CA504A606A708A802A901AB0EAF0FB40FB50FB820D804D904DF0100040205038004040605074409140A020C200E211F
:4002000010A8172919801A011B801C041D102040210824082510261029102B832CA42D8030A03201334136103705384839103A013D483E106108621063029150921294403D
:4002400098049A159B289D90A0A8A104A302A510AD80AE60C0FFC2E7C47ECAFDCCEDCE7FD80E011005110722083809100C260F421124120113131520161517101A381B0CCA
:400280001F01211024082510260329382B032F10300733303438350F37403B083E10580459045F01850187028806890D8C028D0D8E01940195029604970D9801990D9A02FB
:4002C0009C089D0DA008A10DA408A808A902AB04AD02AE08AF08B008B207B30FB408B808BB08BE11D409D804D904DB04DF010010018004100580086409100A030B040C0417
:400300000D200E8010A811401201142016041710181419011C081E802204252426A82720284429902CA02D402E2030A03204350236A839503B043C803E113F0459095A80CC
:400340005B10614080108112880491509292944499489A149B089D90A0E8A302A514C0C3C277C42FCAFDCCFECEFED60FD808E2200401C004B401EE08500458105F4080047A
:400380008B40D4A0D620E680AC10EE4000010A0110011A011C00201F1F000B00000000000000000000000000000000000000000000000000000000000000000000000000FB
:4003C00000000000000000000000000000000000000000000000000000000000000000000000000000000000000000000000000000000000000000000000000000000000FD
:4004000000000000000000000000000000000000000000000000000000000000000000000000000000000000000000000000000000000000000000000000000000000000BC
:40044000000000000000000000000000000000000000000000000000000000000000000000000000000000000000000000000000000000000000000000000000000000007C
:40048000000000000000000000000000000000000000000000000000000000000000000000000000000000000000000000000000000000000000000000000000000000003C
:0200000490006A
:0400000000004005B7
:0200000490105A
:04000000BC90ACAF55
:0200000490303A
:020000001A09DB
:0200000490402A
:4000000000000000000000000000000000000000000000000000000000000000000000000000000000000000000000000000000000000000000000000000000000000000C0
:400040000000000000000000000000000000000000000000000000000000000000000000000000000000000000000000000000000000000000000000000000000000000080
:400080000000000000000000000000000000000000000000000000000000000000000000000000000000000000000000000000000000000000000000000000000000000040
:4000C0000000000000000000000000000000000000000000000000000000000000000000000000000000000000000000000000000000000000000000000000000000000000
:0200000490501A
:0C00000000012E16106900012E242A7247
:00000001FF